:1000000001308A00182900000A108A100A1182079C
:10001000313432343334343435343634373438349C
:1000200039342A3430342334E83272346137E734D7
:1000300020316939203AF5396110E230F334EE3479
:100040007A103A1000008A110A1235290B08A6000E
:100050008B13831603178C170C14000000008312F7
:100060000C087F3903196F280313A70003170D0825
:100070000313A80003170F080313A90027080C1E79
:100080003F289900280803178D0003132908031738
:100090008F0083168C170C140000000083120C0DC7
:1000A0000E0D7F3903196F280313A70003170D08DE
:1000B0000313A80003170F080313A90027080C1E39
:1000C0005F289900280803178D00031329080317D8
:1000D0008F008D0A03198F0A0313292803170313AE
:1000E000A61B8B178A110A123C29A601A10A210816
:1000F000213C0318F628240803198528013A03191E
:100100008B28033A031991289628DE30831688003D
:10011000831288009628BE308316880083128800D8
:1001200096287E308316880083128800221CA2281D
:1001300008081E391E3C031DA12822102308A60012
:10014000A301F52808081E391E3C0319F0280808E9
:100150000239031DAD28A701C12808080439031D71
:10016000B4280130A700C12808080839031DBB289E
:100170000230A700C12808081039031DC128033028
:10018000A7002708A8000330A900F701F8012808F4
:1001900003102918F707F70CF80CA918F707F70C44
:1001A000F80C2919F707F70CF80CA919F707F70C41
:1001B000F80C291AF707F70CF80CA91AF707F70C2F
:1001C000F80C291BF707F70CF80CA91BF707F70C1D
:1001D000F80C240878070420F800A3002214F5285E
:1001E000A40A2408033C0319A401A101FE308316CC
:1001F000880083122608F8008A110A12452980080F
:1002000003191529A7010408A6002710831B27142A
:1002100000080C1E0929990026088400831327185A
:100220008317840A0319850AFF288A110A124429B0
:10023000A001193083169900A630980090308312DF
:10024000980083161F149F141F159F1107309C00E0
:1002500083131F3083058312A1012210A301A4017F
:1002600000308316860083122328143003178D0074
:1002700000308F00031326280D300C1E3D299900F5
:100280000A300C1E4129990075287808A500250818
:0E0290008400831326188317FF284429630077
:02400E00393F38
:00000001FF
;PIC16F877A
;CRC=2D77  CREATED="22-Kas-20 21:55"
